{
  "_format": "hh-sol-artifact-1",
  "contractName": "IHive",
  "sourceName": "contracts/Ideapat.sol",
  "abi": [
    {
      "anonymous": false,
      "inputs": [
        {
          "indexed": true,
          "internalType": "address",
          "name": "submitter",
          "type": "address"
        },
        {
          "indexed": false,
          "internalType": "string",
          "name": "ideaDescription",
          "type": "string"
        },
        {
          "indexed": false,
          "internalType": "uint256",
          "name": "timestamp",
          "type": "uint256"
        }
      ],
      "name": "IdeaSimilar",
      "type": "event"
    },
    {
      "anonymous": false,
      "inputs": [
        {
          "indexed": true,
          "internalType": "address",
          "name": "submitter",
          "type": "address"
        },
        {
          "indexed": false,
          "internalType": "string",
          "name": "ideaDescription",
          "type": "string"
        },
        {
          "indexed": false,
          "internalType": "uint256",
          "name": "timestamp",
          "type": "uint256"
        },
        {
          "indexed": false,
          "internalType": "uint256",
          "name": "ideaID",
          "type": "uint256"
        }
      ],
      "name": "IdeaSubmitted",
      "type": "event"
    },
    {
      "inputs": [
        {
          "internalType": "uint256",
          "name": "ideaID",
          "type": "uint256"
        }
      ],
      "name": "getIdeaByID",
      "outputs": [
        {
          "internalType": "string",
          "name": "",
          "type": "string"
        },
        {
          "internalType": "uint256",
          "name": "",
          "type": "uint256"
        },
        {
          "internalType": "address",
          "name": "",
          "type": "address"
        }
      ],
      "stateMutability": "view",
      "type": "function"
    },
    {
      "inputs": [],
      "name": "getIdeaCount",
      "outputs": [
        {
          "internalType": "uint256",
          "name": "",
          "type": "uint256"
        }
      ],
      "stateMutability": "view",
      "type": "function"
    },
    {
      "inputs": [
        {
          "internalType": "string",
          "name": "",
          "type": "string"
        }
      ],
      "name": "ideaExists",
      "outputs": [
        {
          "internalType": "bool",
          "name": "",
          "type": "bool"
        }
      ],
      "stateMutability": "view",
      "type": "function"
    },
    {
      "inputs": [
        {
          "internalType": "uint256",
          "name": "",
          "type": "uint256"
        }
      ],
      "name": "ideas",
      "outputs": [
        {
          "internalType": "address",
          "name": "submitter",
          "type": "address"
        },
        {
          "internalType": "string",
          "name": "ideaDescription",
          "type": "string"
        },
        {
          "internalType": "uint256",
          "name": "timestamp",
          "type": "uint256"
        },
        {
          "internalType": "uint256",
          "name": "ideaID",
          "type": "uint256"
        }
      ],
      "stateMutability": "view",
      "type": "function"
    },
    {
      "inputs": [
        {
          "internalType": "uint256",
          "name": "",
          "type": "uint256"
        }
      ],
      "name": "ideasByID",
      "outputs": [
        {
          "internalType": "address",
          "name": "submitter",
          "type": "address"
        },
        {
          "internalType": "string",
          "name": "ideaDescription",
          "type": "string"
        },
        {
          "internalType": "uint256",
          "name": "timestamp",
          "type": "uint256"
        },
        {
          "internalType": "uint256",
          "name": "ideaID",
          "type": "uint256"
        }
      ],
      "stateMutability": "view",
      "type": "function"
    },
    {
      "inputs": [
        {
          "internalType": "string",
          "name": "ideaTitle",
          "type": "string"
        },
        {
          "internalType": "string",
          "name": "ideaDescription",
          "type": "string"
        }
      ],
      "name": "submitIdea",
      "outputs": [
        {
          "internalType": "uint256",
          "name": "",
          "type": "uint256"
        }
      ],
      "stateMutability": "nonpayable",
      "type": "function"
    }
  ],
  "bytecode": "60806040526127106003553480156014575f5ffd5b5061115b806100225f395ff3fe608060405234801561000f575f5ffd5b5060043610610060575f3560e01c806351c666a61461006457806353a3c149146100945780638e798421146100c657806395b53837146100f6578063b63310e814610129578063bab73eab1461015c575b5f5ffd5b61007e60048036038101906100799190610958565b61017a565b60405161008b91906109b9565b60405180910390f35b6100ae60048036038101906100a99190610a05565b6101af565b6040516100bd93929190610ade565b60405180910390f35b6100e060048036038101906100db9190610b1a565b61033c565b6040516100ed9190610b90565b60405180910390f35b610110600480360381019061010b9190610a05565b610650565b6040516101209493929190610ba9565b60405180910390f35b610143600480360381019061013e9190610a05565b61072f565b6040516101539493929190610ba9565b60405180910390f35b610164610800565b6040516101719190610b90565b60405180910390f35b6001818051602081018201805184825260208301602085012081835280955050505050505f915054906101000a900460ff1681565b60605f5f8360025f8681526020019081526020015f206003015414610209576040517f08c379a000000000000000000000000000000000000000000000000000000000815260040161020090610c3d565b60405180910390fd5b5f60025f8681526020019081526020015f206040518060800160405290815f82015f9054906101000a900473ffffffffffffffffffffffffffffffffffffffff1673ffffffffffffffffffffffffffffffffffffffff1673ffffffffffffffffffffffffffffffffffffffff16815260200160018201805461028a90610c88565b80601f01602080910402602001604051908101604052809291908181526020018280546102b690610c88565b80156103015780601f106102d857610100808354040283529160200191610301565b820191905f5260205f20905b8154815290600101906020018083116102e457829003601f168201915b5050505050815260200160028201548152602001600382015481525050905080602001518160400151825f0151935093509350509193909250565b5f5f835111610380576040517f08c379a000000000000000000000000000000000000000000000000000000000815260040161037790610d02565b60405180910390fd5b5f8251116103c3576040517f08c379a00000000000000000000000000000000000000000000000000000000081526004016103ba90610d6a565b60405180910390fd5b6001836040516103d39190610dc2565b90815260200160405180910390205f9054906101000a900460ff161561044b573373ffffffffffffffffffffffffffffffffffffffff167f7cea36764b04a4eae11677dafcd71414dc1bba4c76450c20108073b0609dafad844260405161043b929190610dd8565b60405180910390a25f905061064a565b5f600354905060035f81548092919061046390610e33565b91905055505f60405180608001604052803373ffffffffffffffffffffffffffffffffffffffff1681526020018581526020014281526020018381525090505f81908060018154018082558091505060019003905f5260205f2090600402015f909190919091505f820151815f015f6101000a81548173ffffffffffffffffffffffffffffffffffffffff021916908373ffffffffffffffffffffffffffffffffffffffff1602179055506020820151816001019081610523919061101a565b50604082015181600201556060820151816003015550508060025f8481526020019081526020015f205f820151815f015f6101000a81548173ffffffffffffffffffffffffffffffffffffffff021916908373ffffffffffffffffffffffffffffffffffffffff16021790555060208201518160010190816105a5919061101a565b506040820151816002015560608201518160030155905050600180866040516105ce9190610dc2565b90815260200160405180910390205f6101000a81548160ff0219169083151502179055503373ffffffffffffffffffffffffffffffffffffffff167f3d14a1e47dd8914afef3068fe1599dc19e62bcb2d267e10d1546655059a2f24785428560405161063c939291906110e9565b60405180910390a281925050505b92915050565b5f818154811061065e575f80fd5b905f5260205f2090600402015f91509050805f015f9054906101000a900473ffffffffffffffffffffffffffffffffffffffff16908060010180546106a290610c88565b80601f01602080910402602001604051908101604052809291908181526020018280546106ce90610c88565b80156107195780601f106106f057610100808354040283529160200191610719565b820191905f5260205f20905b8154815290600101906020018083116106fc57829003601f168201915b5050505050908060020154908060030154905084565b6002602052805f5260405f205f91509050805f015f9054906101000a900473ffffffffffffffffffffffffffffffffffffffff169080600101805461077390610c88565b80601f016020809104026020016040519081016040528092919081815260200182805461079f90610c88565b80156107ea5780601f106107c1576101008083540402835291602001916107ea565b820191905f5260205f20905b8154815290600101906020018083116107cd57829003601f168201915b5050505050908060020154908060030154905084565b5f5f80549050905090565b5f604051905090565b5f5ffd5b5f5ffd5b5f5ffd5b5f5ffd5b5f601f19601f8301169050919050565b7f4e487b71000000000000000000000000000000000000000000000000000000005f52604160045260245ffd5b61086a82610824565b810181811067ffffffffffffffff8211171561088957610888610834565b5b80604052505050565b5f61089b61080b565b90506108a78282610861565b919050565b5f67ffffffffffffffff8211156108c6576108c5610834565b5b6108cf82610824565b9050602081019050919050565b828183375f83830152505050565b5f6108fc6108f7846108ac565b610892565b90508281526020810184848401111561091857610917610820565b5b6109238482856108dc565b509392505050565b5f82601f83011261093f5761093e61081c565b5b813561094f8482602086016108ea565b91505092915050565b5f6020828403121561096d5761096c610814565b5b5f82013567ffffffffffffffff81111561098a57610989610818565b5b6109968482850161092b565b91505092915050565b5f8115159050919050565b6109b38161099f565b82525050565b5f6020820190506109cc5f8301846109aa565b92915050565b5f819050919050565b6109e4816109d2565b81146109ee575f5ffd5b50565b5f813590506109ff816109db565b92915050565b5f60208284031215610a1a57610a19610814565b5b5f610a27848285016109f1565b91505092915050565b5f81519050919050565b5f82825260208201905092915050565b8281835e5f83830152505050565b5f610a6282610a30565b610a6c8185610a3a565b9350610a7c818560208601610a4a565b610a8581610824565b840191505092915050565b610a99816109d2565b82525050565b5f73ffffffffffffffffffffffffffffffffffffffff82169050919050565b5f610ac882610a9f565b9050919050565b610ad881610abe565b82525050565b5f6060820190508181035f830152610af68186610a58565b9050610b056020830185610a90565b610b126040830184610acf565b949350505050565b5f5f60408385031215610b3057610b2f610814565b5b5f83013567ffffffffffffffff811115610b4d57610b4c610818565b5b610b598582860161092b565b925050602083013567ffffffffffffffff811115610b7a57610b79610818565b5b610b868582860161092b565b9150509250929050565b5f602082019050610ba35f830184610a90565b92915050565b5f608082019050610bbc5f830187610acf565b8181036020830152610bce8186610a58565b9050610bdd6040830185610a90565b610bea6060830184610a90565b95945050505050565b7f4964656120494420646f6573206e6f74206578697374000000000000000000005f82015250565b5f610c27601683610a3a565b9150610c3282610bf3565b602082019050919050565b5f6020820190508181035f830152610c5481610c1b565b9050919050565b7f4e487b71000000000000000000000000000000000000000000000000000000005f52602260045260245ffd5b5f6002820490506001821680610c9f57607f821691505b602082108103610cb257610cb1610c5b565b5b50919050565b7f49646561207469746c652063616e6e6f7420626520656d7074790000000000005f82015250565b5f610cec601a83610a3a565b9150610cf782610cb8565b602082019050919050565b5f6020820190508181035f830152610d1981610ce0565b9050919050565b7f49646561206465736372697074696f6e2063616e6e6f7420626520656d7074795f82015250565b5f610d54602083610a3a565b9150610d5f82610d20565b602082019050919050565b5f6020820190508181035f830152610d8181610d48565b9050919050565b5f81905092915050565b5f610d9c82610a30565b610da68185610d88565b9350610db6818560208601610a4a565b80840191505092915050565b5f610dcd8284610d92565b915081905092915050565b5f6040820190508181035f830152610df08185610a58565b9050610dff6020830184610a90565b9392505050565b7f4e487b71000000000000000000000000000000000000000000000000000000005f52601160045260245ffd5b5f610e3d826109d2565b91507fffffffffffffffffffffffffffffffffffffffffffffffffffffffffffffffff8203610e6f57610e6e610e06565b5b600182019050919050565b5f819050815f5260205f209050919050565b5f6020601f8301049050919050565b5f82821b905092915050565b5f60088302610ed67fffffffffffffffffffffffffffffffffffffffffffffffffffffffffffffffff82610e9b565b610ee08683610e9b565b95508019841693508086168417925050509392505050565b5f819050919050565b5f610f1b610f16610f11846109d2565b610ef8565b6109d2565b9050919050565b5f819050919050565b610f3483610f01565b610f48610f4082610f22565b848454610ea7565b825550505050565b5f5f905090565b610f5f610f50565b610f6a818484610f2b565b505050565b5b81811015610f8d57610f825f82610f57565b600181019050610f70565b5050565b601f821115610fd257610fa381610e7a565b610fac84610e8c565b81016020851015610fbb578190505b610fcf610fc785610e8c565b830182610f6f565b50505b505050565b5f82821c905092915050565b5f610ff25f1984600802610fd7565b1980831691505092915050565b5f61100a8383610fe3565b9150826002028217905092915050565b61102382610a30565b67ffffffffffffffff81111561103c5761103b610834565b5b6110468254610c88565b611051828285610f91565b5f60209050601f831160018114611082575f8415611070578287015190505b61107a8582610fff565b8655506110e1565b601f19841661109086610e7a565b5f5b828110156110b757848901518255600182019150602085019450602081019050611092565b868310156110d457848901516110d0601f891682610fe3565b8355505b6001600288020188555050505b505050505050565b5f6060820190508181035f8301526111018186610a58565b90506111106020830185610a90565b61111d6040830184610a90565b94935050505056fea2646970667358221220019f0509868b47fa96ef05a4a6aec4f1eb2bcf226e77e086614bb1443fa50c9364736f6c634300081b0033",
  "deployedBytecode": "0x608060405234801561001057600080fd5b506004361061004c5760003560e01c806344de6b2f1461005157806395b5383714610083578063b5a820ed146100b5578063bab73eab146100e5575b600080fd5b61006b600480360381019061006691906105ea565b610103565b60405161007a939291906106f7565b60405180910390f35b61009d600480360381019061009891906105ea565b61028e565b6040516100ac939291906106f7565b60405180910390f35b6100cf60048036038101906100ca919061086a565b610370565b6040516100dc91906108ce565b60405180910390f35b6100ed610594565b6040516100fa91906108e9565b60405180910390f35b6000606060008080549050841061014f576040517f08c379a000000000000000000000000000000000000000000000000000000000815260040161014690610950565b60405180910390fd5b600080858154811061016457610163610970565b5b90600052602060002090600302016040518060600160405290816000820160009054906101000a900473ffffffffffffffffffffffffffffffffffffffff1673ffffffffffffffffffffffffffffffffffffffff1673ffffffffffffffffffffffffffffffffffffffff1681526020016001820180546101e3906109ce565b80601f016020809104026020016040519081016040528092919081815260200182805461020f906109ce565b801561025c5780601f106102315761010080835404028352916020019161025c565b820191906000526020600020905b81548152906001019060200180831161023f57829003601f168201915b505050505081526020016002820154815250509050806000015181602001518260400151935093509350509193909250565b6000818154811061029e57600080fd5b90600052602060002090600302016000915090508060000160009054906101000a900473ffffffffffffffffffffffffffffffffffffffff16908060010180546102e7906109ce565b80601f0160208091040260200160405190810160405280929190818152602001828054610313906109ce565b80156103605780601f1061033557610100808354040283529160200191610360565b820191906000526020600020905b81548152906001019060200180831161034357829003601f168201915b5050505050908060020154905083565b6000808251116103b5576040517f08c379a00000000000000000000000000000000000000000000000000000000081526004016103ac90610a4b565b60405180910390fd5b6001826040516103c59190610aa7565b908152602001604051809103902060009054906101000a900460ff161561043f573373ffffffffffffffffffffffffffffffffffffffff167f7cea36764b04a4eae11677dafcd71414dc1bba4c76450c20108073b0609dafad834260405161042e929190610abe565b60405180910390a26000905061058f565b600060405180606001604052803373ffffffffffffffffffffffffffffffffffffffff16815260200184815260200142815250908060018154018082558091505060019003906000526020600020906003020160009091909190915060008201518160000160006101000a81548173ffffffffffffffffffffffffffffffffffffffff021916908373ffffffffffffffffffffffffffffffffffffffff16021790555060208201518160010190816104f79190610c9a565b50604082015181600201555050600180836040516105159190610aa7565b908152602001604051809103902060006101000a81548160ff0219169083151502179055503373ffffffffffffffffffffffffffffffffffffffff167fab4d50afafe6d508b8f57e152e71e1cfd03485bb96129c49c420a0e760aba4348342604051610582929190610abe565b60405180910390a2600190505b919050565b60008080549050905090565b6000604051905090565b600080fd5b600080fd5b6000819050919050565b6105c7816105b4565b81146105d257600080fd5b50565b6000813590506105e4816105be565b92915050565b600060208284031215610600576105ff6105aa565b5b600061060e848285016105d5565b91505092915050565b600073ffffffffffffffffffffffffffffffffffffffff82169050919050565b600061064282610617565b9050919050565b61065281610637565b82525050565b600081519050919050565b600082825260208201905092915050565b60005b83811015610692578082015181840152602081019050610677565b60008484015250505050565b6000601f19601f8301169050919050565b60006106ba82610658565b6106c48185610663565b93506106d4818560208601610674565b6106dd8161069e565b840191505092915050565b6106f1816105b4565b82525050565b600060608201905061070c6000830186610649565b818103602083015261071e81856106af565b905061072d60408301846106e8565b949350505050565b600080fd5b600080fd5b7f4e487b7100000000000000000000000000000000000000000000000000000000600052604160045260246000fd5b6107778261069e565b810181811067ffffffffffffffff821117156107965761079561073f565b5b80604052505050565b60006107a96105a0565b90506107b5828261076e565b919050565b600067ffffffffffffffff8211156107d5576107d461073f565b5b6107de8261069e565b9050602081019050919050565b82818337600083830152505050565b600061080d610808846107ba565b61079f565b9050828152602081018484840111156108295761082861073a565b5b6108348482856107eb565b509392505050565b600082601f83011261085157610850610735565b5b81356108618482602086016107fa565b91505092915050565b6000602082840312156108805761087f6105aa565b5b600082013567ffffffffffffffff81111561089e5761089d6105af565b5b6108aa8482850161083c565b91505092915050565b60008115159050919050565b6108c8816108b3565b82525050565b60006020820190506108e360008301846108bf565b92915050565b60006020820190506108fe60008301846106e8565b92915050565b7f496e76616c696420696e64657800000000000000000000000000000000000000600082015250565b600061093a600d83610663565b915061094582610904565b602082019050919050565b600060208201905081810360008301526109698161092d565b9050919050565b7f4e487b7100000000000000000000000000000000000000000000000000000000600052603260045260246000fd5b7f4e487b7100000000000000000000000000000000000000000000000000000000600052602260045260246000fd5b600060028204905060018216806109e657607f821691505b6020821081036109f9576109f861099f565b5b50919050565b7f496465612063616e6e6f7420626520656d707479000000000000000000000000600082015250565b6000610a35601483610663565b9150610a40826109ff565b602082019050919050565b60006020820190508181036000830152610a6481610a28565b9050919050565b600081905092915050565b6000610a8182610658565b610a8b8185610a6b565b9350610a9b818560208601610674565b80840191505092915050565b6000610ab38284610a76565b915081905092915050565b60006040820190508181036000830152610ad881856106af565b9050610ae760208301846106e8565b9392505050565b60008190508160005260206000209050919050565b60006020601f8301049050919050565b600082821b905092915050565b600060088302610b507fffffffffffffffffffffffffffffffffffffffffffffffffffffffffffffffff82610b13565b610b5a8683610b13565b95508019841693508086168417925050509392505050565b6000819050919050565b6000610b97610b92610b8d846105b4565b610b72565b6105b4565b9050919050565b6000819050919050565b610bb183610b7c565b610bc5610bbd82610b9e565b848454610b20565b825550505050565b600090565b610bda610bcd565b610be5818484610ba8565b505050565b5b81811015610c0957610bfe600082610bd2565b600181019050610beb565b5050565b601f821115610c4e57610c1f81610aee565b610c2884610b03565b81016020851015610c37578190505b610c4b610c4385610b03565b830182610bea565b50505b505050565b600082821c905092915050565b6000610c7160001984600802610c53565b1980831691505092915050565b6000610c8a8383610c60565b9150826002028217905092915050565b610ca382610658565b67ffffffffffffffff811115610cbc57610cbb61073f565b5b610cc682546109ce565b610cd1828285610c0d565b600060209050601f831160018114610d045760008415610cf2578287015190505b610cfc8582610c7e565b865550610d64565b601f198416610d1286610aee565b60005b82811015610d3a57848901518255600182019150602085019450602081019050610d15565b86831015610d575784890151610d53601f891682610c60565b8355505b6001600288020188555050505b50505050505056fea26469706673582212209e5f710478b2ba0983e3b2ef3b26685cbb92fdf600fb4a4260d0a7e1dbabc2b564736f6c634300081b0033",
  "linkReferences": {},
  "deployedLinkReferences": {}
}