{
  "_format": "hh-sol-artifact-1",
  "contractName": "IHive",
  "sourceName": "contracts/Ideapat.sol",
  "abi": [
    {
      "anonymous": false,
      "inputs": [
        {
          "indexed": true,
          "internalType": "address",
          "name": "submitter",
          "type": "address"
        },
        {
          "indexed": false,
          "internalType": "string",
          "name": "ideaDescription",
          "type": "string"
        },
        {
          "indexed": false,
          "internalType": "uint256",
          "name": "timestamp",
          "type": "uint256"
        }
      ],
      "name": "IdeaSimilar",
      "type": "event"
    },
    {
      "anonymous": false,
      "inputs": [
        {
          "indexed": true,
          "internalType": "address",
          "name": "submitter",
          "type": "address"
        },
        {
          "indexed": false,
          "internalType": "string",
          "name": "ideaDescription",
          "type": "string"
        },
        {
          "indexed": false,
          "internalType": "uint256",
          "name": "timestamp",
          "type": "uint256"
        }
      ],
      "name": "IdeaSubmitted",
      "type": "event"
    },
    {
      "inputs": [
        {
          "internalType": "uint256",
          "name": "index",
          "type": "uint256"
        }
      ],
      "name": "getIdea",
      "outputs": [
        {
          "internalType": "address",
          "name": "",
          "type": "address"
        },
        {
          "internalType": "string",
          "name": "",
          "type": "string"
        },
        {
          "internalType": "uint256",
          "name": "",
          "type": "uint256"
        }
      ],
      "stateMutability": "view",
      "type": "function"
    },
    {
      "inputs": [],
      "name": "getIdeaCount",
      "outputs": [
        {
          "internalType": "uint256",
          "name": "",
          "type": "uint256"
        }
      ],
      "stateMutability": "view",
      "type": "function"
    },
    {
      "inputs": [
        {
          "internalType": "uint256",
          "name": "",
          "type": "uint256"
        }
      ],
      "name": "ideas",
      "outputs": [
        {
          "internalType": "address",
          "name": "submitter",
          "type": "address"
        },
        {
          "internalType": "string",
          "name": "ideaDescription",
          "type": "string"
        },
        {
          "internalType": "uint256",
          "name": "timestamp",
          "type": "uint256"
        }
      ],
      "stateMutability": "view",
      "type": "function"
    },
    {
      "inputs": [
        {
          "internalType": "string",
          "name": "ideaDescription",
          "type": "string"
        }
      ],
      "name": "submitIdea",
      "outputs": [
        {
          "internalType": "bool",
          "name": "",
          "type": "bool"
        }
      ],
      "stateMutability": "nonpayable",
      "type": "function"
    }
  ],
  "bytecode": "0x6080604052348015600f57600080fd5b50610da28061001f6000396000f3fe608060405234801561001057600080fd5b506004361061004c5760003560e01c806344de6b2f1461005157806395b5383714610083578063b5a820ed146100b5578063bab73eab146100e5575b600080fd5b61006b600480360381019061006691906105ea565b610103565b60405161007a939291906106f7565b60405180910390f35b61009d600480360381019061009891906105ea565b61028e565b6040516100ac939291906106f7565b60405180910390f35b6100cf60048036038101906100ca919061086a565b610370565b6040516100dc91906108ce565b60405180910390f35b6100ed610594565b6040516100fa91906108e9565b60405180910390f35b6000606060008080549050841061014f576040517f08c379a000000000000000000000000000000000000000000000000000000000815260040161014690610950565b60405180910390fd5b600080858154811061016457610163610970565b5b90600052602060002090600302016040518060600160405290816000820160009054906101000a900473ffffffffffffffffffffffffffffffffffffffff1673ffffffffffffffffffffffffffffffffffffffff1673ffffffffffffffffffffffffffffffffffffffff1681526020016001820180546101e3906109ce565b80601f016020809104026020016040519081016040528092919081815260200182805461020f906109ce565b801561025c5780601f106102315761010080835404028352916020019161025c565b820191906000526020600020905b81548152906001019060200180831161023f57829003601f168201915b505050505081526020016002820154815250509050806000015181602001518260400151935093509350509193909250565b6000818154811061029e57600080fd5b90600052602060002090600302016000915090508060000160009054906101000a900473ffffffffffffffffffffffffffffffffffffffff16908060010180546102e7906109ce565b80601f0160208091040260200160405190810160405280929190818152602001828054610313906109ce565b80156103605780601f1061033557610100808354040283529160200191610360565b820191906000526020600020905b81548152906001019060200180831161034357829003601f168201915b5050505050908060020154905083565b6000808251116103b5576040517f08c379a00000000000000000000000000000000000000000000000000000000081526004016103ac90610a4b565b60405180910390fd5b6001826040516103c59190610aa7565b908152602001604051809103902060009054906101000a900460ff161561043f573373ffffffffffffffffffffffffffffffffffffffff167f7cea36764b04a4eae11677dafcd71414dc1bba4c76450c20108073b0609dafad834260405161042e929190610abe565b60405180910390a26000905061058f565b600060405180606001604052803373ffffffffffffffffffffffffffffffffffffffff16815260200184815260200142815250908060018154018082558091505060019003906000526020600020906003020160009091909190915060008201518160000160006101000a81548173ffffffffffffffffffffffffffffffffffffffff021916908373ffffffffffffffffffffffffffffffffffffffff16021790555060208201518160010190816104f79190610c9a565b50604082015181600201555050600180836040516105159190610aa7565b908152602001604051809103902060006101000a81548160ff0219169083151502179055503373ffffffffffffffffffffffffffffffffffffffff167fab4d50afafe6d508b8f57e152e71e1cfd03485bb96129c49c420a0e760aba4348342604051610582929190610abe565b60405180910390a2600190505b919050565b60008080549050905090565b6000604051905090565b600080fd5b600080fd5b6000819050919050565b6105c7816105b4565b81146105d257600080fd5b50565b6000813590506105e4816105be565b92915050565b600060208284031215610600576105ff6105aa565b5b600061060e848285016105d5565b91505092915050565b600073ffffffffffffffffffffffffffffffffffffffff82169050919050565b600061064282610617565b9050919050565b61065281610637565b82525050565b600081519050919050565b600082825260208201905092915050565b60005b83811015610692578082015181840152602081019050610677565b60008484015250505050565b6000601f19601f8301169050919050565b60006106ba82610658565b6106c48185610663565b93506106d4818560208601610674565b6106dd8161069e565b840191505092915050565b6106f1816105b4565b82525050565b600060608201905061070c6000830186610649565b818103602083015261071e81856106af565b905061072d60408301846106e8565b949350505050565b600080fd5b600080fd5b7f4e487b7100000000000000000000000000000000000000000000000000000000600052604160045260246000fd5b6107778261069e565b810181811067ffffffffffffffff821117156107965761079561073f565b5b80604052505050565b60006107a96105a0565b90506107b5828261076e565b919050565b600067ffffffffffffffff8211156107d5576107d461073f565b5b6107de8261069e565b9050602081019050919050565b82818337600083830152505050565b600061080d610808846107ba565b61079f565b9050828152602081018484840111156108295761082861073a565b5b6108348482856107eb565b509392505050565b600082601f83011261085157610850610735565b5b81356108618482602086016107fa565b91505092915050565b6000602082840312156108805761087f6105aa565b5b600082013567ffffffffffffffff81111561089e5761089d6105af565b5b6108aa8482850161083c565b91505092915050565b60008115159050919050565b6108c8816108b3565b82525050565b60006020820190506108e360008301846108bf565b92915050565b60006020820190506108fe60008301846106e8565b92915050565b7f496e76616c696420696e64657800000000000000000000000000000000000000600082015250565b600061093a600d83610663565b915061094582610904565b602082019050919050565b600060208201905081810360008301526109698161092d565b9050919050565b7f4e487b7100000000000000000000000000000000000000000000000000000000600052603260045260246000fd5b7f4e487b7100000000000000000000000000000000000000000000000000000000600052602260045260246000fd5b600060028204905060018216806109e657607f821691505b6020821081036109f9576109f861099f565b5b50919050565b7f496465612063616e6e6f7420626520656d707479000000000000000000000000600082015250565b6000610a35601483610663565b9150610a40826109ff565b602082019050919050565b60006020820190508181036000830152610a6481610a28565b9050919050565b600081905092915050565b6000610a8182610658565b610a8b8185610a6b565b9350610a9b818560208601610674565b80840191505092915050565b6000610ab38284610a76565b915081905092915050565b60006040820190508181036000830152610ad881856106af565b9050610ae760208301846106e8565b9392505050565b60008190508160005260206000209050919050565b60006020601f8301049050919050565b600082821b905092915050565b600060088302610b507fffffffffffffffffffffffffffffffffffffffffffffffffffffffffffffffff82610b13565b610b5a8683610b13565b95508019841693508086168417925050509392505050565b6000819050919050565b6000610b97610b92610b8d846105b4565b610b72565b6105b4565b9050919050565b6000819050919050565b610bb183610b7c565b610bc5610bbd82610b9e565b848454610b20565b825550505050565b600090565b610bda610bcd565b610be5818484610ba8565b505050565b5b81811015610c0957610bfe600082610bd2565b600181019050610beb565b5050565b601f821115610c4e57610c1f81610aee565b610c2884610b03565b81016020851015610c37578190505b610c4b610c4385610b03565b830182610bea565b50505b505050565b600082821c905092915050565b6000610c7160001984600802610c53565b1980831691505092915050565b6000610c8a8383610c60565b9150826002028217905092915050565b610ca382610658565b67ffffffffffffffff811115610cbc57610cbb61073f565b5b610cc682546109ce565b610cd1828285610c0d565b600060209050601f831160018114610d045760008415610cf2578287015190505b610cfc8582610c7e565b865550610d64565b601f198416610d1286610aee565b60005b82811015610d3a57848901518255600182019150602085019450602081019050610d15565b86831015610d575784890151610d53601f891682610c60565b8355505b6001600288020188555050505b50505050505056fea26469706673582212209e5f710478b2ba0983e3b2ef3b26685cbb92fdf600fb4a4260d0a7e1dbabc2b564736f6c634300081b0033",
  "linkReferences": {},
  "deployedLinkReferences": {}
}